:020000040800F2
:10000000000003205D060008FD210008FF21000814
:100010000122000803220008052200080000000059
:10002000000000000000000000000000916E0008C9
:100030000722000800000000216F0008AD670008DB
:10004000AD060008AD060008AD060008AD060008C4
:10005000AD060008AD060008AD060008AD060008B4
:10006000AD060008AD060008AD060008AD060008A4
:10007000AD060008AD060008AD060008AD06000894
:10008000AD060008AD060008AD060008AD06000884
:10009000AD060008AD060008AD060008AD06000874
:1000A000AD060008AD060008AD060008AD06000864
:1000B000AD060008AD060008AD060008AD06000854
:1000C000AD060008AD060008AD060008AD06000844
:1000D000AD060008AD060008AD060008AD06000834
:1000E000AD060008AD060008AD060008AD06000824
:1000F000AD060008AD060008AD060008AD06000814
:10010000AD060008AD060008AD060008AD06000803
:10011000AD060008AD06000809220008AD0600087B
:10012000AD060008AD060008AD060008AD060008E3
:10013000AD060008AD060008AD060008AD060008D3
:10014000AD060008AD060008AD060008AD060008C3
:10015000AD060008AD060008AD060008AD060008B3
:10016000AD060008AD060008AD060008AD060008A3
:10017000AD060008AD060008AD060008000000004E
:10018000AD060008AD060008AD060008AD06000883
:10019000AD060008AD060008AD060008AD06000873
:0C01A00015220008AD060008212200080E
:1001B00010B5054C237833B9044B13B10448AFF3A1
:1001C00000800123237010BD800300200000000088
:1001D000383E020808B5034B1BB103490348AFF38F
:1001E000008008BD0000000084030020383E0208A3
:1001F00001F0FF01102A2BDB10F0070F08D010F8D8
:10020000013B013A8B422DD010F0070F42B3F6D1DB
:10021000F0B441EA012141EA014122F007047FF0F4
:1002200000070023F0E80256083C85EA010586EA4B
:10023000010685FA47F5A3FA87F586FA47F6A5FA87
:1002400087F68EB9EED1F0BC01F0FF0102F0070293
:1002500032B110F8013B013A83EA010313B1F8D13E
:100260000020704701387047002D06BF354603381F
:10027000073815F0010F07D1013015F4807F02BF58
:10028000013015F4C03F0130F0BC0138704700BFA9
:100290007BB972B90029BEBF00204FF0004106E0D3
:1002A00008BF00281CBF6FF000414FF0FF3000F086
:1002B000D3B9ADF1080C6DE904CE002909DB002BA0
:1002C0001ADB00F04DF8DDF804E0DDE9022304B0AC
:1002D0007047404261EB4101002B1BDB00F040F80E
:1002E000DDF804E0DDE9022304B0404261EB4101A6
:1002F000524263EB43037047524263EB430300F007
:100300002FF8DDF804E0DDE9022304B0404261EBA0
:1003100041017047524263EB430300F021F8DDF8DE
:1003200004E0DDE9022304B0524263EB430370476B
:1003300053B94AB9002908BF00281CBF4FF0FF314C
:100340004FF0FF3000F088B9ADF1080C6DE904CE34
:1003500000F006F8DDF804E0DDE9022304B07047A0
:100360002DE9F047089D8E4604468846002B4AD169
:100370008A42174662D9B2FA82F64EB1C6F120031C
:1003800001FA06F820FA03F3B74043EA0808B4403C
:100390004FEA174E1FFA87FCB8FBFEF1230C0EFB49
:1003A000118843EA084301FB0CF29A4209D9FB1871
:1003B00001F1FF3080F0EA809A4240F2E780023992
:1003C0003B449A1AA3B2B2FBFEF00EFB102243EAA2
:1003D000024300FB0CFC9C4509D9FB1800F1FF32DD
:1003E00080F0D6809C4540F2D3803B44023840EAFE
:1003F0000140A3EB0C0300211DB1F3400022C5E92D
:100400000032BDE8F0878B4205D90DB1C5E9000186
:1004100000210846F5E7B3FA83F1002946D1734578
:1004200002D3824200F20581841A6EEB030201209E
:100430009046002DE5D0C5E90048E2E7002A00F02B
:100440009080B2FA82F6002E40F0A4808A1A030C43
:100450004FEA174E80B2BCB20121B2FBFEFC0EFB8C
:100460001C2243EA024304FB0CF29A4207D9FB1810
:100470000CF1FF3802D29A4200F2E080C4469B1A87
:10048000B3FBFEF20EFB123340EA034302FB04F41B
:100490009C4207D9FB1802F1FF3002D29C4200F2C5
:1004A000CA8002461B1B42EA0C40A5E7C1F12006A8
:1004B0008B4022FA06F71F430EFA01F420FA06F3E6
:1004C0002EFA06FE4FEA1749234300FA01F81FFAF5
:1004D00087FCBEFBF9F01C0C09FB10EE44EA0E444D
:1004E00000FB0CFEA64502FA01F209D93C1900F105
:1004F000FF3A80F09C80A64540F2998002383C4447
:10050000A4EB0E041FFA83FEB4FBF9F309FB1344BA
:100510004EEA044403FB0CFCA44508D93C1903F142
:10052000FF3E80F08280A4457FD9023B3C4443EAF1
:100530000040A4EB0C04A0FB02EC64457346E146CA
:1005400062D35FD05DB1B8EB030264EB090404FA37
:1005500006F622FA01F31E43CC40C5E900640021EF
:100560004FE7B1FBF2FC010C41EA0E4180B240EAD8
:1005700001423B4638463C46B846BE462026B1FBC3
:10058000F7F1A2EB080241EA0C4166E7014618E7E1
:1005900010462CE7C6F120022EFA02F3B740B14014
:1005A00020FA02F24FEA174E0A43B3FBFEF8BCB240
:1005B0000EFB1833110C41EA034108FB04F9B0406B
:1005C00089454FEA104380B23ED9791808F1FF3CC3
:1005D00001D289451FD8A1EB0901B1FBFEF909FB46
:1005E00004F80EFB191192B242EA0142424529D2A7
:1005F000BA1809F1FF31C4D24245C2D2A9F10201B1
:100600003A44BEE7F0459DD2BEEB02036CEB070C0B
:100610000138E14696E7A7EB09094944A8F1020C25
:10062000B1FBFEF909FB04F8DBE773467FE75046B0
:1006300066E70846FDE63B44023A33E7ACF1020CBC
:100640003B441CE749469CE7A1EB0901C446B1FBCA
:10065000FEF909FB04F8C4E7704700BFDFF834D0A7
:10066000002103E00C4B5B58435004310B480C4B0A
:1006700042189A42F6D30B4A02E0002342F8043BA8
:10068000094B9A42F9D303F013FE22F067FE01F002
:1006900065F8704700000320A47F070800000020D1
:1006A00064010020800300206C440120FEE77047B5
:1006B00008B500F0BDFDBDE8084000F03FBD00F00A
:1006C000B9BD704710B50421044621F019FC20463D
:1006D00010BD000038B50C4B0C4C18800C4B822020
:1006E00019806368984740F6110398420AD1094D72
:1006F00023682C60822098472B688220DB6898470B
:10070000002038BD0120FCE7A60300204C0000209B
:10071000A4030020A80300204FF4A071F020FFF7ED
:10072000D9BF0000F7B5394D2B6804461B698220FC
:100730009847208000284ED02B680DF106025B6997
:1007400001A982209847324B1B78002B4BD0BDF873
:10075000062040F674639A423FD9ADF80630BDF8E2
:1007600006209B1A9BB20A2B42D90B22B3FBF2F351
:10077000284A1288934201D9013A93B2BDF8042065
:10078000254840F6B8318A4234D8C2F571620E323B
:10079000016892B20F25B2FBF5F2204D2D88AA42D6
:1007A00084BF05F1FF35AAB28A4215468EB22AD916
:1007B000921B91B21A4E3768BB42BAB28CBF9A1ADA
:1007C000D21A92B211440529C4BF05603360036890
:1007D00063803368A38003B0F0BDB32A9CBFB4220A
:1007E000ADF80620BBE7BDF80630A3F5B473B9E752
:1007F0000023C3E7C2F56D62083292B20E2A016887
:10080000C8D800252A46891A89B2D3E7A803002050
:10081000B8260020A4030020A0030020A603002087
:100820009C03002037B568460D461446FFF77AFF53
:10083000BDF8000030B1BDF802302B60BDF80430C7
:100840002360012003B030BD032821D8DFE800F089
:10085000020B12190F4B1A68B2FA82F252090421E4
:100860000D4803F0B9BF0B4B5A68B2FA82F2520935
:100870000821F5E7074B9A68B2FA82F25209102173
:10088000EEE7044BDA68B2FA82F252092021E7E778
:10089000704700BFAC03002000100240032821D89D
:1008A000DFE800F0020B12190F4B1A68003A18BF6C
:1008B000012204210D4803F08FBF0B4B5A68003A08
:1008C00018BF01220821F5E7074B9A68003A18BFC4
:1008D00001221021EEE7044BDA68003A18BF01222A
:1008E0002021E7E7704700BFAC0300200010024062
:1008F00003280DD8DFE800F00206080A04210548A5
:1009000003F06FBF0821FAE71021F8E72021F6E78E
:10091000704700BF0010024008B5032811D8DFE877
:1009200000F0020A0C0E0421074803F04FFF431E9B
:100930005842584108BD0821F6E71021F4E720216C
:10094000F2E70020F3E700BF0010024070B5084D49
:1009500000240126E0B2FFF7DFFF18B12B68012B5E
:1009600018BF2E600134052C05F10405F2D170BDCD
:10097000AC030020012380F8781080F879307047AC
:100980007047002070470000034B4164003918BFD6
:1009900001211970704700BF2B37012070470020DC
:1009A0007047836B0BB10846184770474FF6FF70CE
:1009B0007047406803689B691847704770477047E5
:1009C0007047704710B5044600F04AFD236803499C
:1009D000D3F890302046BDE810401847000000D002
:1009E00008B503680446D3F8843098472368204646
:1009F000DB6F984700F0ECF8236820465B6F984760
:100A0000292001F01BF900F0E3F8236820465B6F12
:100A10009847F8E710B5044609F030F823682046F7
:100A2000D3F8BC30BDE81040184700F0FDBC00F022
:100A300001BD00F033BD00F0D3BC00F043BD00F0B9
:100A40004BBD00F0D7BC08F047BA10B5842104466E
:100A500021F056FA204610BD10B590F8341090F8E9
:100A600078400C4B8C421A7809D03AB90A4A0B49A3
:100A70001488088810800C8001221A7010BD002A8A
:100A8000FCD0054A05491488088810800C80002293
:100A9000F3E700BF2437012020370120223701204F
:100AA00070B50D46194635B9094B0A4A0A4840F255
:100AB000FF2122F0A3F9C0E90F52084B003A18BFFA
:100AC00001221A700368BDE87040D3F890301847CF
:100AD000A83E0208E03E02082E3F02082A37012005
:100AE00008B5094B1B888B4203D8084B1B889342DF
:100AF00005D9074B074A0848A32122F07FF9074B85
:100B00001980074B1A8008BD2037012022370120A9
:100B1000733F0208D63F02082E3F02082637012005
:100B200028370120034690F87A0018B15868036806
:100B30001B68184770470000012108B500220846CD
:100B400005F0BEFE0A4B186028B90A4B0A4A282154
:100B50000A4822F053F900220421012005F04FFF3A
:100B6000074B186018B9074B034A2C21F0E708BD62
:100B7000C0030020194002086240020891400208A8
:100B8000BC030020E4400208024B4FF0FF3118681C
:100B900005F0E0BEC0030020014B186805F006BF59
:100BA000C0030020024B0021186805F0D3BE00BF2F
:100BB000C0030020FFF7F0BF03480449006800238A
:100BC0001A4605F057BF00BFBC03002004000020F8
:100BD00013B5084C00231A4601A9206805F07BFFD5
:100BE00020684FF0FF33002201A905F074FF02B026
:100BF00010BD00BFBC03002003685B6C18470120D8
:100C0000704703689B6A1847FEE740F2EF30704771
:100C1000054B0360054B4FF08062C3F88820BFF39B
:100C20004F8FBFF36F8F70474C4C020800E100E01C
:100C300010B504464FF45A61FFF7EAFF204621F051
:100C40005FF9204610BD000082B0002301930E4BD7
:100C50001A6B42F400021A631A6B02F4000201924A
:100C6000019A1A6942F400021A611A6922F4000218
:100C70001A61064B064A1A61064A5A61064B4FF042
:100C800080629A6002B07047003802404C28002011
:100C9000E90E0008090C000800E100E008B50A2888
:100CA00009D8DFE800F006100E0808080810101038
:100CB0001000022008BD054B054A0648902122F08D
:100CC0009DF80020F6E70120F4E700BF2641020866
:100CD000414102088C41020838B50C46887FFFF775
:100CE000DDFFA58AE28A164B2169586342EA054274
:100CF0005A64628BD963521B1A642568082D0ED181
:100D00009A611A615862207F0E4A42EA0062DA61F3
:100D1000E2681A620C4A5961D9601A6038BD002233
:100D2000D8611A61E1680A0A480902F4784200F4BD
:100D3000FC600243C1F3C4010A439A63034AECE72F
:100D400000B002400900010001230200012303005A
:100D500008B50B280BD8DFE800F00612100A0A0AC3
:100D60000A0808080808022008BD0520FCE7054B12
:100D7000054A06486F2122F041F80020F4E70120DF
:100D8000F2E700BF26410208DD4102088C4102085B
:100D90002DE9F04191F81D800C464046FFF7D8FF41
:100DA000A77F05463846FFF7D3FF06463846FFF7CC
:100DB00075FFA18A628B444B521A1A649A61228B86
:100DC000521A1A61E28A586342EA01425A6421695E
:100DD0006268D963DA602068802828D0227F0FD823
:100DE000202867D0402865D004281AD0364B45EA21
:100DF000026545F40035B845DD6161D0334A44E011
:100E0000B0F5807F04D0B0F5007FEFD1304800E02E
:100E1000304840EA0262DA61E2681A625E62596151
:100E200032E045EA026242F40032DA61F6E7A06895
:100E3000021DDA62227F45EA026545F40035DD6174
:100E40005E625961017841B1012921D0224B234AC8
:100E500023484FF48D7121F0D1FFDA69418822F4E3
:100E60007F42013922F0100242EA0122DA610121B7
:100E7000154BDA6942F02002DA61DA699206FCD495
:100E800010229A600029B9D0164A1A60BDE8F08194
:100E9000B2F1FF01DA69408822F47F4200F1FF30AD
:100EA00022F0100242EA002242F0100218BF012193
:100EB000DA61DDE745EA0262034B42F40032B4E74F
:100EC00042F20132E1E700BF00B00240012301001D
:100ED000090002000A0002002742020841420208FB
:100EE0008C41020801230200024B1B68586803680A
:100EF0005B6918472C37012070B5044625460A4B1C
:100F00000C30002660602672667245F8203B602235
:100F1000294608F009FF04F55A63EE6024359D4226
:100F2000FBD1204670BD00BF4C4C0208034B1A6831
:100F3000D207FCD423229A60704700BF00B0024061
:100F40007047000030B50F4C2568ED07FCD4232511
:100F50000904A56041F001010225FF2B656361646E
:100F6000E0630AD00849656241EA0363E361074B25
:100F700022626061E060236030BDE561039BA36392
:100F8000034BF8E700B00240090001000100020035
:100F90000100030030B50E4C2568ED07FCD4232575
:100FA0001204A56042F001020225FF2B6563626412
:100FB000E063E16008D01B0643F00213E361054BD8
:100FC00065626061236030BD034BE3610123F9E793
:100FD00000B0024001000200020002FF30B50B4CDD
:100FE0002568ED07FCD4232512041B06A56043F4F5
:100FF0000033022542F0010265636264E063E16050
:10100000E361034B65626061236030BD00B0024064
:1010100001000200012070474020704700EB811062
:101020000830704700EB811008307047012070478E
:1010300041F27810704741F2781303FB0100083049
:10104000704741F2781303FB01000830704701201C
:1010500070471020704700EB01100830704700EB1C
:10106000011008307047084601F03ABD10B5034B37
:101070000360044607F087FC204610BD044D0208BB
:1010800010B50446FFF7F2FF2046482120F038FF54
:10109000204610BD10B5034B0360044607F073FCF7
:1010A000204610BDD04C020810B50446FFF7F2FFF1
:1010B00020464FF48C5120F023FF204610BD000045
:1010C00010B5034B0360044607F05DFC204610BDDD
:1010D0009C4C020810B50446FFF7F2FF2046182189
:1010E00020F00EFF204610BD10B5094B03600446EA
:1010F00000F58D500C30FFF7B9FF04F12C00FFF71D
:10110000C9FF04F11400FFF7DBFF204610BD00BF4C
:10111000384D020808B50248FFF7E6FF08BD00BFDA
:101120009C12002010B50446FFF7DEFF204641F276
:10113000543120F0E5FE204610BD00002DE9F341BA
:1011400001F0E8F8054601F0E9F8002401462346DD
:1011500028462246009411F021FE284B284A1A60A6
:10116000204602F0ABFA274D274B284A28489A60C0
:1011700011F07CFD2B68BFF35B8FDB0737D428466B
:1011800020F0C0FE98B3234C234B236004F12C08BD
:1011900008F58C5707F14C0604F114006060C4F8A0
:1011A0000880E760266107F0EFFB1C4B6361404657
:1011B00007F0EAFB1A4BE362384607F0E5FB04F55B
:1011C000805303F5FA70174AC3F8AC2102F08CFD86
:1011D000224607F14801304602F024FC304601F077
:1011E0007FFC114821F028FE284620F097FE0F488A
:1011F00002B0BDE8F041FFF7E5BB00BF903701202A
:101200004804002098120020680400204C040020AC
:10121000080000209C120020384D02089C4C020857
:10122000D04C0208044D020815110008C403002028
:10123000704700000148FFF7D3BB00BFC403002084
:1012400070B5264E264C274D274B23603046FFF7BE
:1012500053FE284616F0A8FE24480FF013FD244B39
:101260002448DC6000224FF48071C3E91212224945
:101270001A86C3E91A12214983F85820C3E91E01CE
:101280001F49C3F880101F491F480B60F021C3E9B4
:101290000422C3E90622C3E90822C3E90A22C3E9FA
:1012A0000E22C3E91022C3E91422C3E917225A66A9
:1012B00083F870205A67C3E90165018013480180F3
:1012C00013484FF4A07101801248018012490A703E
:1012D000012283F83420114A1A6070BDF404002002
:1012E0009412002068040020983E02084C0400205C
:1012F000C4030020000001010100000100045000AF
:101300001A0014002C370120203701202637012035
:10131000223701202837012024370120604B0208A2
:101320000148FFF775BC00BFF4040020002070479F
:1013300081807047C180704701817047418170474B
:101340007047704770477047704710B4C48803688F
:10135000121B84885B6D091B12B25DF8044B09B245
:1013600018474FF6FF7383814FF0FF330362136812
:10137000C36110607047002070478B888380012014
:101380007047704780F82610704790F82600704725
:1013900010B50022B1F90840B1F90A10028042806C
:1013A0008480C18010BD0022028042808280C28081
:1013B00070470177704780ED080A704780F8241065
:1013C000704780F8251070470120704798307047AB
:1013D0008C3070478430704770477047704700000A
:1013E000034B902283F85A2383F85823704700BF99
:1013F00000E100E0094A0A49D3680A48C3F30A0336
:10140000013B9BB20B801169C1F30A0101390180D4
:101410001364536B43F0010353637047006801404A
:10142000F2250020F0250020014BD3F8AC007047D6
:1014300000680140024B0122C3F8AC105A627047A9
:101440000068014010B52C21044620F059FD2046CB
:1014500010BD10B5BC21044620F052FD204610BD41
:1014600070B5044607F08DFD23689D6E0EF060F99F
:1014700001462046A8472368054AD3F88C502046E9
:10148000AC460023BDE87040A2F51631604700BFAE
:1014900000B004D007F05CBD07F066BD07F022BDC8
:1014A00007F091BE90F8252012B103685B691847D8
:1014B000704790F825201AB190F8242002B11860E6
:1014C00070470000034B4FF080629A604FF08072CB
:1014D0009A60704700E100E0084B4FF08062C3F86B
:1014E0008820BFF34F8FBFF36F8F4FF08072C3F828
:1014F0008820BFF34F8FBFF36F8F704700E100E08C
:1015000070B50023124E8380124B0360336893F84A
:10151000582005460AB1D86C00B998680368DB6AA0
:1015200098473368B0FA80F4D86C640930B1036826
:10153000DB6A9847002808BF44F001042CB9064B29
:10154000064A07482C2121F059FC284670BD00BFEF
:101550002C3701204C4D02087F420208DD42020870
:101560001643020870B5254E3568BFF35B8F15F042
:10157000010540D1304620F0C5FC00283BD0204C6E
:10158000204B256104F13400C4E90035C4E902555B
:10159000E584A562A5850FF05AFE04F158000AF013
:1015A00055FD194BA3652046184B40F8843BFFF7C7
:1015B000A7FF174BC4F884302433C4F88C304FF4A1
:1015C000C803C4E928350023C4F8AC30C4F8B030EF
:1015D000C4F8B430C4F8B8300E480F4BC4F890507B
:1015E000C4F89C50C4F8A850C4F8983021F024FCEA
:1015F000304620F093FC024870BD00BFF425002067
:10160000F8250020686502086C4D0208E44D0208C8
:101610001C650208DD130008FC64020838B5184C8C
:1016200023685BB3174B184A1B6C11888B4216D189
:10163000164B198803F0D8FE236893F86A2000251A
:10164000013283F86A2083F87C50FFF7B5FA2068EE
:1016500008F014FA2846BDE83840FFF7F5B803F063
:10166000C3FE2468236820461B6A9847012384F838
:101670007C300020BDE83840FFF710B938BD00BF0E
:101680002C37012000680140F2250020F0250020C1
:1016900007B5064BADF806001B68054801220DF1A1
:1016A000060104F041FC03B05DF804FB0C000020CF
:1016B000F826002008B5642005F0F6F8FBE70000E6
:1016C00030B595B0102200210AA821F09EFD142209
:1016D000002103A821F099FD00241E4B01941A6CEF
:1016E00042F080521A641B6C03F080530193019BFB
:1016F000194B02941A6842F440421A601B6803F4C2
:10170000404302930122029B4FF48033CDE908232A
:1017100002254FF480030821CDE90E534FF4B47332
:10172000CDE9101308A804231393129503F0B4FE17
:1017300003F078FE0F23CDE903354FF4A0504FF4AA
:101740008053CDE90603052103A8059404F080F831
:1017500015B030BD003802400070004080B59AB02E
:1017600002F0B4FDFFF7ACFF142200210DA821F018
:101770004CFD0024C74B00941A6BC748C74DDFF8D7
:10178000588342F010021A631A6B02F010020092A2
:10179000009A01941A6B42F020021A631A6B02F04D
:1017A00020020192019A02941A6B42F080021A639D
:1017B0001A6B02F080020292029A03941A6B42F0B2
:1017C00004021A631A6B02F004020392039A04944F
:1017D0001A6B42F001021A631A6B02F001020492C2
:1017E000049A05941A6B42F002021A631A6B02F013
:1017F00002020592059A06941A6B42F040021A639F
:101800001A6B02F040020692069A07941A6B42F095
:1018100008021A631B6B03F00803224607933C215E
:10182000079B02F0D9FF9E480122022102F0D4FF5B
:1018300022469B48042102F0CFFF224699484FF4EC
:10184000405102F0C9FF01263C23CDE90D369248F4
:101850000F9403230DA90227109302F0D3FE9048A2
:101860000DA9CDE90D76CDE90F4402F0CBFE04239E
:101870008B480DA9CDE90D36CDE90F4702F0C2FE28
:101880000DA94FF440538748CDE90D36CDE90F47F8
:1018900002F0B8FE8448854B036002F0A9FDDFF832
:1018A0003CE2834B2C62C5E900E328464FF48043B9
:1018B000C5E90434C5E90244C5E9064403F09AF9D0
:1018C0001021284603F0DEFB21462846794D03F01F
:1018D000F8FB4FF48273C5E900834FF400791823B5
:1018E000C5E9069328460A23C5E90244C5E904442C
:1018F000C5E90844AC62EB6204F0BAFA8F232246D1
:10190000394667488DF824308DF8344002F064FF82
:1019100032464FF47A7309A9284604F005FB4FF4C8
:101920007A7332460DA9284604F0AAFC324639469D
:101930005B48614D02F050FF9DF83430D32B04BF5B
:101940005E4B1E705E4B0126C5E900361022402317
:101950000024C5E904234FF4C073C5E906344FF4ED
:101960000063C5E908344FF4005302274FF004091F
:10197000AB624FF0030A07230DA92846CDE90D738A
:10198000CDE90F934FF00808C5E90249CDE911A749
:10199000139704F051F94FF6FF7209A92846CDE9D3
:1019A0000A86089409960C9404F066F9304602F011
:1019B000B9FC4FF6FF7209A92846CDE90978CDE9AF
:1019C0000B6404F059F94FF6FF7209A92846CDE9D6
:1019D00009A8CDE90B9404F04FF94FF40C73089368
:1019E000089B0C934FF6FF7209A92846CDE9099888
:1019F0000B9604F041F940F26A51284604F05AF976
:101A000034220DEB0200214621F0FFFB2D4D2E4B21
:101A10002C61C5E900340923C5E905361D23C5E954
:101A2000073A40F20D1140F24313C5E9091340F2A1
:101A3000171040F24713C5E90B032846C5E90244D5
:101A4000AC8685F8364003F0D7FBFF214FF4806C5D
:101A5000F022CDE912140521CDE914C14FF4A07391
:101A60000DA9CDE90E24CDE9164228462246174D90
:101A70001893CDE910370D94ADF864408DF86640A9
:101A800003F085FC124B2B601B6898472B68114DA7
:101A9000DB6825E00038024000100240F8270020F3
:101AA00000080240000C02408C2800200030024058
:101AB000A0860100F8260020C4260020B8260020B9
:101AC000400100A05027002000680140B4260020FB
:101AD000140000204C28002000500140005C004011
:101AE0009847134B2846C5E90034C5E90274C5E997
:101AF0000A47C5E90C4402F08BFC3146284602F047
:101B00003DFDFEF7D5FDFEF7D2FD04F05DFE094A6E
:101B10000948214604F084FE084B094A1860214612
:101B2000084804F07DFE084B186004F05FFEFEE7F5
:101B300000B002404C4E0208B5160008C026002036
:101B4000284E0208BF060008BC26002070477047D8
:101B50007FB5094B8DF817201B6802930DF1170212
:101B60000123009201930A460146044803F0EAF873
:101B700007B05DF804FB00BF10000020F82700202C
:101B80007FB500238DF81730084B1B6802930A4677
:101B900001230DF11701009101930146044803F060
:101BA00061F99DF8170007B05DF804FB10000020F4
:101BB000F82700201FB5084C24680092CDE90134B5
:101BC0000A4601230146054803F04CF9003818BFC6
:101BD000012004B010BD00BF10000020F827002035
:101BE00002F0A0BB10B5064C00222046042102F0F2
:101BF000F3FD20460122BDE81040042102F0ECBDB7
:101C00000008024038B50B4D044601220A484FF443
:101C1000005102F0E1FD00220421284602F0DCFD23
:101C20002046FFF735FD28460122BDE83840042153
:101C300002F0D2BD00080240000C024038B50B4D46
:101C4000044600220A484FF4005102F0C5FD00226C
:101C50000421284602F0C0FD2046FFF719FD284662
:101C60000122BDE83840042102F0B6BD0008024060
:101C7000000C0240F7B5144E144F05460C46304692
:101C80000022042102F0A8FD00224FF40051384642
:101C900002F0A2FD2846FFF7FBFC0D4B0D481B6828
:101CA000224601A904F0ECFA384601224FF4005113
:101CB000019C02F091FD30460122042102F08CFDCE
:101CC000204603B0F0BD00BF00080240000C0240F7
:101CD0000C000020F826002002F024BB0268034B11
:101CE0009A4201D102F00CBB704700BF00100040C7
:101CF0007047000082B00E4B00220092596C41F4F4
:101D000080415964596C01F480410091009901921D
:101D1000196C41F0805119641B6C03F080530193DE
:101D2000019B0F216FF0010002B002F021BB00BF48
:101D3000003802400268094B9A4282B00BD100235E
:101D40000193074B1A6B42F480521A631B6B03F426
:101D500080530193019B02B0704700BF00300240E6
:101D60000038024007B50F4B02689A4216D1002294
:101D7000A3F5F0430192196B41F4000119631B6B49
:101D800003F40003019305215A20019B02F0F0FAAD
:101D90005A2003B05DF804EB02F01CBB03B05DF801
:101DA00004FB00BF00B002402DE9F043044689B0B7
:101DB0001422002103A821F028FA2268244B9A4219
:101DC00043D1244C244800250095236B43F00403A1
:101DD0002363236B03F004030093009B0195236BA3
:101DE00043F001032363236B03F001030193019B81
:101DF0004FF012094FF400734FF001080327042637
:101E000003A9CDE90339CDE90587079602F0FAFB6E
:101E10004FF480731148079603A9CDE90339CDE942
:101E2000058702F0EFFB0295236C43F40003236463
:101E3000236C03F400030293029B236A43F4000320
:101E40002362236A23F40003236209B0BDE8F08310
:101E5000005C0040003802400008024000000240E0
:101E6000F0B599B004461422002107A821F0CDF95D
:101E700030220DEB0200002121F0C7F922685E4BF1
:101E80009A4240F0B78008230C93C0231093042398
:101E900012930CA84FF40033159303F0A1FD08B181
:101EA000FFF726FF554B5648002400945A6C42F029
:101EB00080625A645A6C02F080620092009A019427
:101EC0001A6B42F020021A631A6B02F02002019290
:101ED000019A02941A6B42F001021A631A6B02F023
:101EE00001020292029A03941A6B42F002021A63F0
:101EF0001A6B02F002020392039A04941A6B42F0E6
:101F000040021A631A6B02F040020492049A05948C
:101F10001A6B42F004021A631A6B02F00402059273
:101F2000059A06941A6B42F008021A631B6B03F0C1
:101F30000803069302250E26069B0B964FF480633A
:101F400007A9CDE90735CDE9094502F05BFB41F66C
:101F500058032C480B9607A9CDE907350927CDE989
:101F6000094502F04FFB032327480B9707A9CDE94A
:101F70000735CDE9094502F045FB4FF4706322486F
:101F80000B9607A9CDE90735CDE9094502F03AFBE3
:101F90004FF40C631D480B9607A9CDE90735CDE931
:101FA000094502F02FFBC02319480B9607A9CDE97C
:101FB0000735CDE9094502F025FB082315480B96A6
:101FC00007A9CDE90735CDE9094502F01BFB4FF420
:101FD000A0530E480B9707A9CDE90735CDE9094570
:101FE00002F010FB58202246052102F0C1F95820CA
:101FF00002F0F0F919B0F0BD00680140003802406D
:102000000014024000000240000402400018024098
:1020100000080240000C024010B5044688B01422AB
:10202000002103A821F0F1F82268144B9A4223D131
:1020300003F56843002101915A6C114842F4801263
:102040005A645A6C02F480120192019A02911A6B3E
:1020500042F020021A631B6B03F020030293029BE1
:102060004FF4607202230321CDE903230523CDE958
:10207000061303A902F0C6FA08B010BD00500140D3
:10208000001402402DE9F04186B0002303932B4B4E
:102090001C68002C4FD14FF00108C3F80080284B7A
:1020A00000949A6B274842EA08029A639B6B03EA02
:1020B00008030093022703260C25009B01A94FF675
:1020C0003F03CDE90137CDE9046502F09BFA1E48D4
:1020D000059501A9CDE90187CDE9034602F092FA01
:1020E00048F233131948059501A9CDE90137CDE927
:1020F000034602F087FA4FF683731548059501A948
:10210000CDE90137CDE9034602F07CFA4CF20373C6
:102110001048059501A9CDE90137CDE9034602F044
:1021200071FA60230C48059501A9CDE90137CDE985
:10213000034602F067FA06B0BDE8F081942800205B
:10214000003802400014024000080240001802401B
:1021500000100240000C02400004024070B588B03C
:1021600000230293204B1A6C42F010021A641B6C7D
:1021700003F010030293054601A903A8029B03F094
:1021800011FC069B4BBB03F0FDFB184E184B336054
:1021900040F2E733F360174BB0FBF3F3013B73609E
:1021A000304600233361B360B36104F039FA04466A
:1021B00080B9304604F00AF9044658B9362002F0D6
:1021C00009F90F2D0DD822462946362002F0D0F805
:1021D000094B1D60204608B070BD03F0D3FB4000E2
:1021E000D3E70124F6E700BF00380240982800201A
:1021F0000010004040420F007C0000207047FEE7C6
:10220000FEE7FEE7FEE77047014804F01DB900BF96
:1022100098280020014803F05DB800BF5027002037
:10222000014802F021B900BF4C280020012070476E
:1022300008B521F08DF8162303604FF0FF3008BD7C
:1022400008B521F085F816230360FEE770B50D464A
:1022500014460E46731B9C4201DC204670BDAFF352
:10226000008006F8010BF5E770B50D4614460E46E2
:10227000731B9C4201DC204670BD16F8010BAFF3C6
:102280000080F5E74FF0FF3070474FF400534B608C
:102290000020704701207047002070470A4A1168EB
:1022A00008B5034609B90949116010686946034435
:1022B0008B4206D921F04CF80C2303604FF0FF301D
:1022C00008BD1360FCE700BFE02800207044012037
:1022D000704710B5042104461FF012FE204610BDC1
:1022E00008B5032913D8DFE801F002060A0E01F051
:1022F00031FA006808BD01F02DFA4068FAE701F0F4
:1023000029FA8068F6E701F025FAC068F2E70020B4
:10231000F0E7000000487047844E0208052070472F
:1023200013B5002451B1036801948DF8034001AA4C
:102330009C680DF10303A04702B010BD0846FBE7FF
:10234000C0897047008A7047C0887047808870478E
:10235000807A00F07F007047807AC00970470020C3
:10236000704700009FED010A704700BF00000000A9
:10237000704710B5082104461FF0C2FD204610BD6D
:102380007047704700F598730868496803C3704741
:10239000704770474160704770477047064BC0F800
:1023A0004C310023C0F8503100F5A273C0F8480149
:1023B000C0F84031704700BF19290008012303729B
:1023C000704770477047704738B5054640680368E6
:1023D000DB699847044604B938BDA188AB89C91A9E
:1023E000236820461B6B09B29847A469F3E710B431
:1023F000C26841685410034601EB6200D20748BF2F
:102400000A599B685DF8044B48BFD35818470346E8
:10241000406830B19A681AB9D86800F00100704776
:102420000120704710B50C2104461FF069FD2046BD
:1024300010BD10B5102104461FF062FD204610BDEE
:1024400010B5102104461FF05BFD204610BD10B5ED
:102450004FF4AE7104461FF053FD204610BD10B579
:10246000402104461FF04CFD204610BD10B50DF074
:102470005FF90368BDE81040DB6B184710B50DF03D
:1024800057F90368BDE810405B6B184737B5054640
:10249000807A6B7A0130C0B29842A87205D90123C4
:1024A0002B720023AB7203B030BDB5F90C20B5F927
:1024B0000E4000210FF032FCC30707D500284FF66D
:1024C000FF73C8BF012313FA80F000B2AB7AE88132
:1024D000041B012BA4B206D1134B1B781BB10DF0CA
:1024E00027F90DF02BF900230093EB89ADF80430A8
:1024F0000E4B1B88ADF806300DF01AF9036802AADE
:1025000012E906001B6C984768680368DB69984706
:102510000546002DC7D0A9882B68214428461B6B8F
:1025200009B29847AD69F4E72A3701202237012024
:10253000054B1B7801462BB1406818B103680C317C
:102540005B6E1847704700BF2B370120037A70B5C8
:102550000546BBB940680368DB69984704463CB947
:102560006868036805F10C011B6EBDE870401847F0
:10257000A1886B8FC91A236820461B6B09B2984744
:10258000A469ECE770BD10B50446D0F8400158B11D
:102590000368DB68984738B1D4F8400103689B684A
:1025A00098470023C4F8403110BD70B5044690F838
:1025B000390094F838300130C0B2984284F83900BC
:1025C00005D901232372002384F8393070BDB4F992
:1025D0003A2000210FF0A2FBC30706D500284FF6D2
:1025E000FF73C8BF0123184400B2238AC01AA08712
:1025F00060680368DB69984705462DB96068036821
:10260000BDE870405B691847A988A38F19442B68FF
:1026100028461B6B09B29847AD69EEE72DE9F14FEB
:10262000D0E9556A0746B06803681B6A9847EF28E7
:1026300005D8484B484AA321484820F0DFFB706882
:1026400003681B6A98470F2803D8454B424AA421C8
:10265000F2E7F06803681B6A98470F2803D8414BDC
:102660003D4AA521E8E70DF063F8DFF80491043056
:102670000DF0C4F8D9F8000010B10368DB68984782
:10268000D9F8000010B103681B689847DFF8E480B0
:10269000D8F8000010B103685B699847D7F83C018F
:1026A00010B103685B689847D8F8000010B1036860
:1026B0001B689847D7F83C0110B103689B6898479E
:1026C000F068036800215B6A9847274B03604FF46A
:1026D000A0530381254B4FF0000B80F80AB01B88F4
:1026E000C0F804B00446A0F80EB08381B068036857
:1026F00059465B6A9847054601F0EAFA7068036834
:1027000059465B6A98472946064601F0C1FA331DCF
:10271000C7F83C61C9F80040C8F80050CAF800305A
:102720002B68C6F808A02846DB68EE639847336834
:1027300030461B689847214628460FF0E9FA23687F
:1027400020461B69984723685B69204601B0BDE8B5
:10275000F04F18478D4302081B440208FA44020850
:1027600041450208E4450208B44F02082037012021
:1027700074370120703701202DE9F14FD0E9556AF7
:102780000746B06803681B6A984741F2771398427E
:1027900005D8564B564AA321564820F02FFB7068A7
:1027A00003681B6A98470F2803D8534B504AA4214B
:1027B000F2E7F06803681B6A98473F2803D84F4B3D
:1027C0004B4AA521E8E70CF0B3FFDFF84491043051
:1027D0000DF014F8D9F8000010B10368DB689847D1
:1027E000D9F8000010B103681B689847DFF824810E
:1027F000D8F8000010B103685B699847D7F83C012E
:1028000010B103685B689847D8F8000010B10368FE
:102810001B689847D7F83C0110B103689B6898473C
:10282000F068036800215B6A984705460023344A34
:102830004360037245F80C2B0446284609F0AEFCB1
:10284000142222872F4A12780023A387002A35D129
:1028500001232372B068036800215B6A984705462C
:1028600001F03CF97068036800215B6A98472946CB
:10287000064601F0EFF8331DC7F83C61C9F8004087
:10288000C8F80050CAF800302B68C6F808A02846DF
:10289000DB68EE639847336830461B6898472146EB
:1028A00028460FF035FA236820461B6998472368AD
:1028B0005B69204601B0BDE8F04F18471249134A42
:1028C000B1F900B0E168236128468B6BB2F90010C2
:1028D0009847E3685946DB6B28469847284609F035
:1028E000D8FB0A4A13885B426387B3E78D4302082B
:1028F00087460208FA44020841450208E4450208F6
:10290000904F02082B370120223701202037012069
:1029100074370120703701202DE9F14FD0E9556A55
:102920000746B06803681B6A9847EF2805D8444BF0
:10293000444AA321444820F061FA706803681B6A86
:1029400098470F2803D8414B3E4AA421F2E7F0688C
:1029500003681B6A98470B2803D83D4B394AA521C9
:10296000E8E70CF0E5FEDFF8F09004300CF046FFED
:10297000D9F8000010B10368DB689847D9F8000067
:1029800010B103681B689847DFF8D080D8F80000C2
:1029900010B103685B699847D7F83C0110B1036830
:1029A0005B689847D8F8000010B103681B68984727
:1029B000D7F83C0110B103689B689847F06803683A
:1029C00000215B6A98474FF0000B224BC0F804B01F
:1029D000044680F808B00360B068036859465B6A33
:1029E0009847054601F074F97068036859465B6AB8
:1029F00098472946064601F04BF9331DC7F83C615C
:102A0000C9F80040C8F80050CAF800302B68C6F872
:102A100008A02846DB68EE639847336830461B6899
:102A20009847214628460FF073F9236820461B6912
:102A3000984723685B69204601B0BDE8F04F18470E
:102A40008D43020866470208FA440208414502081D
:102A5000E44502086C4F02087437012070370120EA
:102A6000044B1B6893F858200AB1D86C00B99868D9
:102A7000704700BF2C370120F8B5174604460E46B4
:102A80000CF05AFF124B1C60124B2360124B0025B6
:102A9000C4E95135114BC4E9535518680368012145
:102AA0009B68C4E94F55C4E955769847284600F01D
:102AB00005FEFFF7D5FF17F020F9FFF7D1FF17F05C
:102AC00097F9FFF7CDFF17F09FF92046F8BD00BF3B
:102AD00080370120184F0208004F02082C370120D0
:102AE000064BC0F84C310023C0F8503100F5A273FA
:102AF000C0F84801C0F84031704700BF19290008EC
:102B0000064BC0F84C310023C0F8503100F5A273D9
:102B1000C0F84801C0F84031704700BF1D260008CA
:102B2000064BC0F84C310023C0F8503100F5A273B9
:102B3000C0F84801C0F84031704700BF792700084D
:102B4000806A70477047704770477047704700222F
:102B5000028042808280C28070477047704730B4E4
:102B6000C26844685510034604EB6200D20748BFB0
:102B700062599B6830BC48BFD35818470346406829
:102B800030B19A681AB9D86800F001007047012086
:102B90007047A0F848107047B0F848007047A0F898
:102BA000E8107047B0F8E800704710B5602104469F
:102BB0001FF0A6F9204610BD10B5102104461FF0E5
:102BC0009FF9204610BD0B898A89D21A4B89C98882
:102BD000591A12B209B20EF021B80B898A89D21A99
:102BE0004B89C988591A12B209B20EF017B810B53C
:102BF00004466C3001F0BAF804F5C670BDE8104028
:102C000001F094B800F5AC70884208B505D10CF01D
:102C10008FFDBDE80840FFF773BF08BD90F8443052
:102C20002DE9F0410446002B50D0B0F84630B0F802
:102C3000482001339BB29342A0F8463046D39B1AFA
:102C40009DB2B0F85020B0F84C30466DD21A12B296
:102C5000B0F84A3000212846B047B4F84E30B4F8F6
:102C60005220A76DD21A0646B4F84A3012B200219B
:102C70002846B847B4F84E30C218B4F84C30F118B2
:102C800012B209B22046FEF760FBB4F84830B4F83F
:102C90004A10B4F846200B449A4217D3002384F814
:102CA0004430A4F846300CF043FD214604300CF0CB
:102CB0008CFDE06D50B10368DB68984730B1E06D82
:102CC000036821469B68BDE8F0411847BDE8F081E4
:102CD00090F8E4302DE9F0410446002B54D0B0F8D0
:102CE000E630B0F8E82001339BB29342A0F8E6301A
:102CF0004AD39B1A9DB2B0F8F020B0F8EC30D0F86F
:102D0000F460D21A12B2B0F8EA3000212846B04777
:102D1000B4F8EE30B4F8F220D4F8F870D21A0646BF
:102D2000B4F8EA3012B200212846B847B4F8EE30C1
:102D3000C218B4F8EC30F11812B209B22046FEF70E
:102D400004FBB4F8E830B4F8EA10B4F8E6200B4419
:102D50009A4219D3002384F8E430A4F8E6300CF04A
:102D6000E7FC214604300CF030FDD4F8FC0058B1EB
:102D70000368DB68984738B1D4F8FC000368214643
:102D80009B68BDE8F0411847BDE8F08110B5034BE2
:102D90000360044600F0FBFC204610BDC062020840
:102DA00010B50446FFF7F2FF20464FF480711FF084
:102DB000A7F8204610BD000010B5034B0360044681
:102DC000FFF7E4FF204610BD4050020810B504464E
:102DD000FFF7F2FF20464FF480711FF091F8204674
:102DE00010BD0000084B10B5044603600AF0F8FF60
:102DF00004F5C670FFF7E0FF2046044B40F86C3F37
:102E000000F050FD204610BD6851020854630208CE
:102E100010B50446FFF7E6FF204641F26C111FF0A3
:102E20006FF8204610BD70B5036804461B6B15464D
:102E300098472368294620465B6BBDE870401847D9
:102E400070B504461D46BDF91060FFF7ECFF23681E
:102E5000294620469B6B9847236831462046DB6B0A
:102E6000BDE87040184700000022C0E90122C0E917
:102E70000322C0E90522C0E907224FF48072828450
:102E8000014A0260704700BFD84F020810B52622E1
:102E90000446002120F0B9F92046FFF7E5FF4FF680
:102EA000FF73E3844FF07E53A362E3620023236346
:102EB0006363A363E36323640023C4E91233C4E9B7
:102EC0001433C4E9163384F84430A4F84630034B75
:102ED0002360012384F82430204610BDDC50020812
:102EE0002DE9F04F044687B0274600250EF064FD1B
:102EF000714BE56347F8403B262632462946384663
:102F000020F083F93846FFF7AFFF6C4B236404F1E0
:102F10006C0BFF2304F5AC7884F86630A566584640
:102F200000F01AFF32462946404620F06EF940462E
:102F3000FFF79AFF624BC4F858314FF6FF73012632
:102F4000A4F88631A4F8883184F88A3104F5C67370
:102F500084F87C61C4F8805184F88451184604F5E3
:102F6000237A039300F0D8FE564BC4F88C3104F555
:102F70003B7984F8B061C4E99D55C4E99F55C4E923
:102F8000A15584F87052A4F872525046FFF77EFFA4
:102F90004846FFF77BFF4C4A04F58053C3E95724AA
:102FA0004A4A04F55370C3E959254FF461610AF0A8
:102FB0000DFF4FF4A0732A46009329463846F023AC
:102FC000FFF73EFF261D4FF07F43A366394630468C
:102FD00005F0ECFC2A4629465846FFF724FF5946DF
:102FE000304605F0E3FC2A464046D221FFF71BFF9E
:102FF000022305AAADF8103004A903234046ADF81A
:10300000143009F02BF904F58A531C33C4F88031CD
:103010004146304605F0CAFCF1220398DFF8C4802F
:103020002B4F9121FFF7FFFE0399304605F0BEFCC0
:103030002946504609F0B4FA3723FB220093504644
:103040003A239B21FFF7FCFE224BC4F8C832C4F898
:10305000CC32214BC4F8BC3251463046C4F8B4825D
:10306000C4F8B882C4F8C072C4F8C47205F09EFCFB
:103070002946484609F094FA362300932A464846E2
:103080001B21FFF7DDFE154BC4F82833C4F82C33A1
:10309000134BC4F814833046C4F81883C4F8207363
:1030A000C4F82473C4F81C33494605F07FFC20465D
:1030B00007B0BDE8F08F00BF68510208CC67020876
:1030C000346802084050020850510208052C0008DC
:1030D0000000C84100004040000080BF000040C028
:1030E00000003443CDCCCC3D406A7047806A7047C5
:1030F00070478A880B8810B5D20A4C88C1699BB288
:1031000051F8220043EA0443184410BD10B50446A8
:10311000BAB1107B68B1537BD27A1B0203F4E0632F
:103120001A43236A03EB82031A888A4202D193F975
:10313000020010BD05D8013880B204330028F3D155
:10314000F7E70020F5E710B52C2104461EF0D8FE65
:10315000204610BD30B58BB00446BDF860500895D0
:10316000BDF85C5007959DF8505006959DF84C5061
:1031700005959DF8485004959DF8445003959DF899
:10318000405002959DF83C500195BDF8385000958F
:103190000EF08CF9064B2360159BE361169B2362AE
:1031A000199B63621A9BA36220460BB030BD00BF1F
:1031B0009C51020870477047704730B4C268446839
:1031C0005510034604EB6200D20748BF62599B6862
:1031D00030BC48BFD35818470346406830B19A689E
:1031E0001AB9D86800F0010070470120704710B587
:1031F000102104461EF084FE204610BD10B5F021BB
:1032000004461EF07DFE204610BD9830884208B569
:1032100005D10CF08DFABDE80840FFF781BC08BD70
:10322000F8B5194B018F1B888B4206462AD9174BDC
:103230001B682BB9164B174A17486C211FF0DEFD8F
:1032400013F81120154B1B6853F82250144B1868C3
:1032500000F070FA2B6807469B6B284698472B684E
:1032600004469B6C3946284698472B6814FB00F4AB
:103270005B6A394628469847A4B223181BB2A6F8C1
:103280004630F8BD0023FAE7883701208437012053
:103290003248020874480208AF4802088C370120FF
:1032A000903701202DE9F34704460EF085FB454B8E
:1032B0002360454B0025C4E910354FF48072FF238D
:1032C00004F16C07A4F8642084F86630A4F8902018
:1032D0004FF6FF733D4AE26604F19806A4F8923077
:1032E00084F8943001A93846C4E91255C4E914554C
:1032F000C4E91655C4E91C55C4E91E55C4E9205556
:10330000C4E92255E5632566A566ADF8043009F0E9
:103310005FFD304609F09EFE2D4BC4E938342D4B3D
:1033200004F14008C4E93A352A4629464046FFF7E9
:103330007AFD4046F021FDF7FFFF04F10409404605
:103340004FF07F4A4FF4A071FDF7F8FF4146484621
:10335000C4F868A005F02AFB2A4629463846FFF73C
:1033600062FD04230DEB03013846ADF8043009F08B
:103370002FFD3946484605F019FB304671220821D9
:10338000FFF751FD012301AA69463046ADF804302C
:10339000ADF8005008F062FF3046A4F8D050FFF7B7
:1033A0003FFF0D4BC4F8D83004F1E0034846C4F8A1
:1033B000D4A0C4F8C030314605F0F8FA204602B077
:1033C000BDE8F0871C520208CC67020810690208A9
:1033D000045202080B320008666666FF0048704718
:1033E00048520208012070477047000030B5174D61
:1033F0002C6814F001048FB0BFF35B8F22D12846F4
:103400001EF080FDF0B1124B124913480A94CDE929
:103410000B433F230993114B0893114B079301234F
:10342000CDE9054304930423CDE90243142300931B
:1034300005220194FFF78EFE0A481FF0FDFC284686
:103440001EF06CFD04480FB030BD00BFE428002022
:103450002C5C0208B4750208E82800202C760208CB
:1034600048760208E93300087047000030B5164D71
:103470002C6814F001048FB0BFF35B8F20D1284675
:103480001EF040FDE0B13F230993104B0893104B11
:10349000104911480A940122CDE906430423CDE9DD
:1034A00003320A230093CDE90B44CDE9014405948E
:1034B000FFF750FE09481FF0BFFC28461EF02EFD06
:1034C00005480FB030BD00BF142900203C7602082B
:1034D0004C760208FC75020818290020693400089F
:1034E0007047000030B5164D2C6814F001048FB001
:1034F000BFF35B8F20D128461EF004FDE0B13F23CF
:103500000993104B0893104B104911480A9401225B
:10351000CDE906430423CDE9033214230093CDE91A
:103520000B44CDE901440594FFF714FE09481FF050
:1035300083FC28461EF0F2FC05480FB030BD00BFEA
:103540004429002040760208507602080C760208D2
:1035500048290020E13400087047000030B5164DBE
:103560002C6814F001048FB0BFF35B8F20D1284684
:103570001EF0C8FCE0B13F230993104B0893104B99
:10358000104911480A940122CDE906430423CDE9EC
:10359000033228230093CDE90B44CDE9014405947F
:1035A000FFF7D8FD09481FF047FC28461EF0B6FC7F
:1035B00005480FB030BD00BF7429002044760208D2
:1035C000547602081C760208782900205935000834
:1035D00000207047002070470EB403B503AB0021F4
:1035E00053F8042B01930DF06DF902B05DF804EB74
:1035F00003B070470CB407B504AB53F8042B019328
:103600000DF060F903B05DF804EB02B07047000004
:10361000436C10B5044673B3038F2BB9184B194A8A
:10362000C52119481FF0EAFBC38E00EB43035B8CF6
:103630000BB30FF0E0F8238F012B03D8134B144A80
:10364000CB21EEE7E28E531C9BB2092B194688BFB3
:10365000A3F10A0104EB410140F63F10498C81427D
:1036600009D10A2B04EB420228BF002304EB4303D9
:10367000508C588451842046BDE810400EF0BEBFE7
:10368000F6480208FF480208AA490208F44902085D
:10369000024A02080EF079BF10B586B002AC84E889
:1036A00006001A460AAB05930193099B0093214635
:1036B000089B0BF0FDFB06B010BD000038B518BB31
:1036C000124B13481C681349B4B1226822440260AB
:1036D000626822440A60A26814440F4B00221A80D8
:1036E00000F038F8054600F033F80C4B1C600C4B2A
:1036F0001D600C4B188007E00B4B03600B4B0B60FD
:103700000B4B1C68002CE8D138BD00BFB02900204D
:10371000A8290020A4290020AC29002084370120FA
:103720008C370120883701205C7602085876020821
:1037300068760208044B1B6853F82100034B1B6892
:1037400003EB4000704700BFA4290020A8290020F7
:103750000120704700487047B429002010B5FFF7DA
:10376000C1FE064C2060FFF7F9FE6060FFF77EFEA9
:10377000A060FFF73BFEE06010BD00BFB429002051
:1037800010B5002404600C6014601C6010BD70470C
:10379000704710B5E42104461EF0B2FB204610BD70
:1037A0002DE9F04F4FF48073054685B000268384E1
:1037B0003A4B8662C0E90166C0E90366C0E9056666
:1037C000C0E9076645F82C3B0446354F04F1740BFD
:1037D000284607F023FF5846FDF792FE07F124091B
:1037E00004F188036767C4F87C90184604F1D00898
:1037F000C4F88060039307F011FF4046FDF780FE98
:103800004FF00A13A3600A23C4F8D070C4F8D8900C
:103810003246C4F8DC60314600932846FFF710FBBF
:10382000A0274FF0800A4FF434594FF0FF31C4F80D
:103830008010A4F8841020462946C4E91677C4F8FD
:1038400060A0E6666666C4F86890C4F854B005F0F7
:10385000ADF80A233246039800933146FFF7F0FA99
:1038600020230398C4F8C830C4E92D77C4E930692F
:10387000C4F8BCA0B42107F0E9FE4FF07F43204616
:103880000399C4F8DC30A4F8E060C4F8B08005F017
:103890008DF8204605B0BDE8F08F00BF8C600208AF
:1038A0001C6502087047704710B5EC2104461EF0F5
:1038B00027FB204610BD0000094A02604FF48071CA
:1038C00000228184FF21C0E90122C0E90322C0E96E
:1038D0000522C0E9072280F826108262704700BFE7
:1038E000CC6702082DE9F3474FF4807306460025A4
:1038F00083843C4B8562C0E90155C0E90355C0E9AA
:103900000555C0E9075546F82C3B044604F1580913
:103910003046FFF7D1FF04F18C08DFF8DCA0484601
:10392000FFF7CAFF04F1B807C4F88450A4F8885020
:10393000C4F858A04046FFF7BFFF3846FFF7BCFF6A
:10394000294BA3604FF4A073C4F8E450A4F8E850E6
:103950002A46C4F8B8A0294600933046F023FFF762
:103960006FFA224B63653146204605F01FF840F29E
:10397000091300931C22484691233021FFF760FA77
:103980001B4B4FF07F45C4E920350523A4F8883050
:103990004946204605F00AF8FF23009321224046BD
:1039A00006237521FFF74CFA124BC4F8B430414698
:1039B000204604F0FBFF0A2300939B2238468C2309
:1039C0003221FFF73DFA4FF0FF33C4E938350323C6
:1039D0002046A4F8E830394604F0E8FF204602B05B
:1039E000BDE8F08720610208F00040014BCEF5FFF2
:1039F0005A7FFFFF6DA8FEFFA8680208704710B548
:103A00004FF4AE7104461EF07BFA204610BD10B58F
:103A10000446D0F8580100F06AF92046BDE810408D
:103A20000BF04ABF10B50446FFF726F8014B2360A0
:103A3000204610BDB46102087047043870477047D3
:103A400010B5102104461EF05BFA204610BDA0F10F
:103A50000400F5E700228260024A026018324260E8
:103A6000C1607047086202087047000010B5034B40
:103A700003600446FFF7B6F9204610BD3062020825
:103A800010B50446FFF7F2FF204641F278111EF010
:103A900037FA204610BD10B58A88B1F90040B0F958
:103AA0000030224412B2934215DA828813441BB2CA
:103AB0009C4210DAB1F90230C988B0F902201944E9
:103AC00009B28A4207DAC1880A4412B29342ACBFF3
:103AD0000020012010BD0020FCE7000010B50446C6
:103AE000FFF7FEF9064B236004F580530022C3F86C
:103AF0006C21C3F87021034AC3F87421204610BD1D
:103B0000306202080000404010B50446FFF76FF82D
:103B100004F58050D0F87431C0F86C31C0F87031C1
:103B200010BD00002DE9F043044604F5805595EDE5
:103B30005B7AB0F99031B0F99201B4F99471B4F9AB
:103B40009661FDEEC77A2DED028B17EE901AD5ED3A
:103B50005C7AFDEEE76A194416EE902A002987B0D8
:103B6000024466DCB1EE477A85ED5B7A0021002ADB
:103B70006BDCF1EE677AC5ED5C7A0022C91A121A85
:103B800012B204F5C67009B20DF048F8D4E9642306
:103B9000CDE90023D4E9A423CDE90223D4E9BC2351
:103BA00002A96846CDE90423FFF775FFB4F99091A7
:103BB000B4F9928104A904466846FFF76CFF00B986
:103BC00094B307EBD77709EB670907EE909ADFED1F
:103BD000278A9FED278AF8EEE77A06EBD67608EB80
:103BE000660878EEE78A07EE908AF8EEE77A38EE14
:103BF000678A28EE080AA8EEA80A1EF0ABF9B5EE0F
:103C0000C00AF1EE10FA4FF000032ADDC8EE807A08
:103C100095ED5D7A67EE877AC5ED5B7AC8EE007A3E
:103C200067EE877AC5ED5C7A07B0BDEC028BBDE824
:103C3000F08307EB010CBCF1EF0FC2BFB1EE477A86
:103C4000C7F1F00185ED5B7A91E706EB020CBCF55C
:103C5000A07FA2BFF1EE677AC6F5A072C5ED5C7ACF
:103C60008CE7C5F86C31C5F87031DDE70000F04233
:103C700000002043704704387047704710B510218A
:103C800004461EF03DF9204610BDA0F10400F5E702
:103C900000228260024A026018324260C1607047AE
:103CA000646202087047000010B5034B03600446CD
:103CB000FFF781FA204610BD8C62020810B5044659
:103CC000FFF7F2FF2046F0211EF01AF9204610BD42
:103CD00010B50446FFF7E6FA014B2360204610BDFD
:103CE0008C620208FFF768BA0022026070477047D2
:103CF00010B5034B03600446FFF749FD204610BD95
:103D0000C062020810B50446FFF7F2FF2046E42126
:103D10001EF0F6F8204610BD10B50446FFF740FD32
:103D2000014B2360204610BDC0620208FFF730BD82
:103D300010B5034B03600446FFF7B4FD204610BDE9
:103D40005463020810B50446FFF7F2FF2046EC2149
:103D50001EF0D6F8204610BD10B50446FFF7C2FD90
:103D6000014B2360204610BD54630208FFF79BBD42
:103D7000F02070474FF4A07070472920FDF75EBF18
:103D80002820FDF75BBF08B5FDF72CFFCA20FDF723
:103D900055FFC320FDF736FF0820FDF733FF502005
:103DA000FDF730FFCF20FDF749FF0020FDF72AFF88
:103DB000C120FDF727FF3020FDF724FFED20FDF7A0
:103DC0003DFF6420FDF71EFF0320FDF71BFF1220BF
:103DD000FDF718FF8120FDF715FFE820FDF72EFF06
:103DE0008520FDF70FFF0020FDF70CFF7820FDF781
:103DF00009FFCB20FDF722FF3920FDF703FF2C2020
:103E0000FDF700FF0020FDF7FDFE3420FDF7FAFE70
:103E10000220FDF7F7FEF720FDF710FF2020FDF749
:103E2000F1FEEA20FDF70AFF0020FDF7EBFE00207F
:103E3000FDF7E8FEB120FDF701FF0020FDF7E2FEEF
:103E40001B20FDF7DFFEB620FDF7F8FE0A20FDF788
:103E5000D9FEA220FDF7D6FEC020FDF7EFFE102010
:103E6000FDF7D0FEC120FDF7E9FE1020FDF7CAFEE8
:103E7000C520FDF7E3FE4520FDF7C4FE1520FDF744
:103E8000C1FEC720FDF7DAFE9020FDF7BBFE36200D
:103E9000FDF7D4FEC820FDF7B5FEF220FDF7CEFEFB
:103EA0000020FDF7AFFEB020FDF7C8FEC220FDF7F1
:103EB000A9FEB620FDF7C2FE0A20FDF7A3FEA7204B
:103EC000FDF7A0FE2720FDF79DFE0420FDF79AFEDA
:103ED0002A20FDF7B3FE0020FDF794FE0020FDF739
:103EE00091FE0020FDF78EFEEF20FDF78BFE2B20CC
:103EF000FDF7A4FE0020FDF785FE0020FDF782FE01
:103F00000120FDF77FFE3F20FDF77CFEF620FDF748
:103F100095FE0120FDF776FE0020FDF773FE0620DA
:103F2000FDF770FE2C20FDF789FEC820FDF7D4FEBA
:103F30002620FDF783FE0120FDF764FEE020FDF75B
:103F40007DFE0F20FDF75EFE2920FDF75BFE24209D
:103F5000FDF758FE0C20FDF755FE0E20FDF752FE32
:103F60000920FDF74FFE4E20FDF74CFE7820FDF7AF
:103F700049FE3C20FDF746FE0920FDF743FE1320D5
:103F8000FDF740FE0520FDF73DFE1720FDF73AFE48
:103F90001120FDF737FE0020FDF734FEE120FDF78C
:103FA0004DFE0020FDF72EFE1620FDF72BFE1B20F8
:103FB000FDF728FE0420FDF725FE1120FDF722FE67
:103FC0000720FDF71FFE3120FDF71CFE3320FDF713
:103FD00019FE4220FDF716FE0520FDF713FE0C200A
:103FE000FDF710FE0A20FDF70DFE2820FDF70AFE62
:103FF0002F20FDF707FE0F20FDF704FE1120FDF72F
:104000001DFEC820FDF768FE2920FDF717FEBDE85C
:1040100008402C20FDF712BE08B5FDF7E3FD032193
:10402000D320FDF727FE80B208BD10B5C4B202222E
:1040300003212046FDF78CFD0A20FDF7D1FD204627
:1040400000220321FDF784FDBDE810400220FDF7AA
:10405000C7BD38B50446E4B2FDF778FD002120461F
:10406000FDF78EFD012105462046FDF789FD40EA5A
:10407000052080B238BD10B5C4B240212046FDF7FE
:104080007FFD030607D54C212046FDF779FD00385A
:1040900018BF012010BD01224B212046FDF758FD1D
:1040A000204600224B21FDF753FD0020F2E773B5B7
:1040B0000423C4B20E461546D7210DEB0302204659
:1040C000FDF778FD019B1BBA1A0DC3F30B23328059
:1040D00020462B8001224B21FDF73AFD00224B2187
:1040E0002046FDF735FD02B070BD000010B50A4A4C
:1040F0001378984204460DD0517888420AD00BB10B
:1041000041B90123D454FDF721FD2046BDE81040FC
:10411000FFF78BBF10BD00BFC429002010B5C4B28B
:1041200009212046FDF72CFD40F00102D2B22046C5
:104130000921BDE81040FDF70BBD10B5C4B209213F
:104140002046FDF71DFD092100F0FE022046BDE8D6
:104150001040FDF7FDBC38B5C4B20D4620460A211B
:10416000FDF70EFD40EA0502D2B220460A21BDE865
:104170003840FDF7EDBC10B50446FDF7E8FC2046DD
:104180001F21FFF7E8FF2046BDE81040FFF7C6BF3C
:1041900038B5C4B20D4620460A21FDF7F1FC20EAED
:1041A0000502D2B220460A21BDE83840FDF7D0BC56
:1041B00010B50446FFF7C1FF20461F21BDE810409F
:1041C000FFF7E6BF10B5C0B20C460B21FDF7D8FCD7
:1041D000204010BD1F21FFF7F5BF0A46C0B20B21DA
:1041E000FDF7B6BC1F21FFF7F8BF38B5C4B20D46C6
:1041F00020461721FDF7C4FC20EA0502D2B2204672
:104200001721BDE83840FDF7A3BC70B5C4B206461F
:1042100004212046FDF7B4FC042100F0FB02054612
:104220002046FDF795FC3046F021FFF7DEFF05F054
:10423000F80220460421FDF78BFC4922202120466C
:10424000FDF786FC0220FDF7CBFC20460122212150
:10425000FDF77EFC20469A224121FDF779FC20469D
:1042600001224A21FDF774FC204601224B21FDF773
:104270006FFC204600224B21FDF76AFC20460122FC
:104280005621FDF765FC204601225821FDF760FC10
:10429000204601224021FDF75BFC2046FF220B2136
:1042A000FDF756FCBDE870400220FDF799BC000008
:1042B000054BD3F8882042F47002C3F888204FF0F1
:1042C00000629A60704700BF00ED00E008B50B4B3C
:1042D0001A6842F400721A601A6842F480621A6026
:1042E0001A6842F480721A60032000F02FF8002050
:1042F000FDF734FFFDF7FEFC002008BD003C024046
:10430000034A044B11681B780B441360704700BFCD
:10431000C829002078000020014B1868704700BFB2
:10432000C829002038B50446FFF7F6FF631C1CBF00
:10433000054B1B78054618BFE418FFF7EDFF431B3C
:10434000A342FAD338BD00BF780000200749CA68ED
:1043500022F4E0620302120403F4E063120C13433C
:1043600043F0BF6343F40033CB60704700ED00E0DF
:10437000164B30B5DC68C4F30224C4F10703251DD5
:10438000042B28BF0423062D4FF0FF358CBF033CC0
:10439000002405FA03F321EA0303A54022EA0502FB
:1043A000A340002843EA0203ACBF00F16040084A82
:1043B0004FEA0313B8BF00F00F00DBB2AABF00F54D
:1043C0006140135480F8003330BD00BF00ED00E0C1
:1043D00014ED00E0002807DB044A4109012300F046
:1043E0001F00834042F82130704700BF00E100E029
:1043F00010B5044650B1437903F0FF0213B90271BE
:10440000FDF798FC01236371002010BD0120FCE73B
:1044100010B5044620B390F8393003F0FF021BB901
:1044200080F83820FDF79EFC022384F83930236899
:1044300061681A6822F440320A431A605A6BA16814
:1044400022F007020A435A631A6CE1686FF30D0207
:104450000A431A6400200123E06384F8393010BD58
:104460000120FCE770477047036870B55E681D68FF
:10447000F207044614D5E90512D51A6822F48072B1
:104480001A60C26B42F00102C26301229A600423E7
:1044900080F83930002380F83830436903B19847F9
:1044A000B20616D5AB0414D523681A6822F400525C
:1044B0001A6020229A60E36B43F00203E363042353
:1044C00084F83930002384F8383063690BB1204612
:1044D0009847300716D5290514D523681A6822F4A1
:1044E00000621A6008229A60E36B43F00403E363FE
:1044F000042384F83930002384F8383063690BB121
:104500002046984772070BD56B0509D523681A68B2
:1045100022F480621A6004229A602046FFF7A2FF0C
:10452000B00714D5A90512D523681A6822F40072C1
:104530001A6002229A60E36BE363012384F8393046
:10454000002384F8383023690BB120469847F206DF
:1045500013D5EB0411D523681A6822F480521A602F
:1045600010229A60E36BE363012384F8393000235F
:1045700084F838302046FFF776FF70BDF0B590F82C
:104580003820012A03464FF002002BD0012283F885
:10459000382083F8390003EB0112D2E90740556A4D
:1045A000174F44EA0040093C012C9CBF05F07F42B4
:1045B00010434FEA01161A6888BF40EA056091B9B6
:1045C000516A394001435162012C9969916103D8C4
:1045D000596A21F07F4191620122002083F839203D
:1045E00083F83800F0BDD16939400143D161991990
:1045F000012C896911619CBF25F07F451562EBE7AD
:10460000F0FFFC002DE9F74FDFF8BC916C4A002366
:104610000D6801249C4004EA0506AC4340F0B780D5
:104620004D68032705F003044FEA430807FA08FC26
:10463000671E012F6FEA0C0C34D8876807EA0C0E4E
:10464000CF6807FA08F747EA0E078760476827EA46
:10465000060EC5F300179F4047EA0E074760C7687C
:1046600007EA0C0E8F6807FA08F747EA0E07022CD4
:10467000C76019D14FEAD30A00EB8A0A03F0070B8F
:10468000DAF820704FEA8B0B4FF00F0E0EFA0BFE8C
:1046900027EA0E0E0F6907FA0BF747EA0E07CAF86A
:1046A000207001E0032CDAD1076804FA08F407EA65
:1046B0000C073C4315F4403F046068D0002401948B
:1046C000D9F8444044F48044C9F84440D9F84440FF
:1046D00023F0030707F1804704F4804407F59C3773
:1046E000019403F0030C019CD7F808E04FEA8C0C0E
:1046F0000F2404FA0CF42EEA040E324CA0424DD0E2
:1047000004F58064A0424BD004F58064A04249D0F7
:1047100004F58064A04247D004F58064A04245D0EF
:1047200004F58064A04243D004F58064A04241D0E7
:1047300004F58064A0423FD004F58064A0423DD0DF
:1047400004F58064A04214BF0A24092404FA0CF47E
:1047500044EA0E04BC609468F74315F4801F0CBF54
:104760003C4034439460D46815F4001F0CBF3C40B7
:104770003443D460546815F4003F0CBF3C403443CC
:1047800054601468ED0354BF3C403443146001335B
:10479000102B7FF43DAF03B0BDE8F08F0024D5E7C8
:1047A0000124D3E70224D1E70324CFE70424CDE793
:1047B0000524CBE70624C9E70724C7E70824C5E793
:1047C000003C0140000002400038024003691942E9
:1047D00014BF0120002070470AB1816170470904AD
:1047E000FBE7436901EA030221EA030141EA0241CE
:1047F0008161704701684B6913F480634FF00002D8
:1048000010D06FF480634B612023026380F83D3049
:1048100080F83E20036C80F83C2043F004030364DE
:1048200001207047184670472DE9F84606460F46A6
:1048300091461D464FEA114A3368BAF1010F0CBF89
:104840005C699C6927EA0404A4B2B4FA84F464099C
:10485000A14501D0002025E06A1CEED0FFF75CFDE9
:10486000089BC01AA84201D8002DE5D13368BAF1DF
:10487000010F0CBF5B699B6927EA03039BB2B3FA84
:1048800083F35B099945D7D100232022336386F84F
:104890003D2086F83E30326C86F83C3042F02002F3
:1048A00032640120BDE8F8862DE9F04104460F4648
:1048B000164698462568686927EA000080B2C0B1AC
:1048C0006B695A0517D52B6843F400732B606FF49E
:1048D00080636B6120220023236384F83D2084F8E9
:1048E0003E30236C43F004032364002384F83C30FF
:1048F0000120BDE8F081731CDDD0FFF70DFDA0EBBA
:104900000800B04201D8002ED4D123685A6927EAA2
:10491000020292B2002ACDD000232022236384F821
:104920003D2084F83E30236C1343DDE770B5044628
:104930000D46164623685B691B0601D500201EE064
:104940002046FFF757FFC8B96A1CF3D0FFF7E4FC15
:10495000801BA84201D8002DECD123685B6913F0BD
:104960008003E7D12022236384F83D2084F83E3081
:10497000226C84F83C3042F020022264012070BD99
:104980002DE9F0431546026885B0DDE90C789946BB
:10499000136843F4807313600E463B46CDF80080E5
:1049A00000224FF001110446FFF73EFF236838B1A3
:1049B0001B68DB0502D54FF400732364032620E057
:1049C00006F0FE061E611A4943463A462046FFF7A6
:1049D0006BFFA8B9236803905A6903929B690393FC
:1049E000424639462046039BFFF7A0FF064660B1CA
:1049F000236C042B01BF2268136843F40073136017
:104A00000126304605B0BDE8F083B9F1010F2368F7
:104A100002D1EDB21D61F4E72A0A1A613946424615
:104A20002046FFF783FF0028E2D12368F1E700BFAB
:104A3000020001002DE9FF479A46036815461A68EF
:104A400042F480621A601A68DDE90C7842F48072E0
:104A50001A600E463B46CDF8008000224FF001114F
:104A60000446FFF7E1FE236838B11B68DB0544BF4D
:104A70004FF400732364032021E05FFA86F906F007
:104A8000FE061E612B4943463A462046FFF70CFFBF
:104A9000A0B9236803905A6903929B690393424625
:104AA00039462046039BFFF741FF58B1236C042B86
:104AB00001BF2268136843F400731360012004B03F
:104AC000BDE8F087BAF1010F23681AD1EDB2424672
:104AD0001D6139462046FFF729FF02460028E5D12F
:104AE00021680B6843F480730B602046CDF800808A
:104AF0003B464FF00111FFF797FE226860B1136843
:104B0000B4E72A0A1A61394642462046FFF70EFFEB
:104B10000028CBD12368D9E749F001031361054987
:104B200043463A462046FFF7BFFE003818BF012033
:104B3000C5E700BF0200010070B504460D461646E9
:104B400023685B695B0701D500201EE02046FFF764
:104B500051FEC8B96A1CF3D0FFF7DEFB801BA842E8
:104B600001D8002DECD123685B6913F00403E7D171
:104B70002022236384F83D2084F83E30226C84F8A0
:104B80003C3042F020022264012070BD70B5044622
:104B90000D46164621684B6913F0400301D00020F2
:104BA00011E04A69D2060FD56FF010024A61202247
:104BB000236384F83D2084F83E30236C2364002373
:104BC00084F83C30012070BDFFF7A6FB801BA84293
:104BD00001D8002DDED123685B6913F04003D9D1E1
:104BE0002022236384F83D2084F83E30236C134355
:104BF000E4E7000070B5044608B9012070BD90F8E4
:104C00003D3003F0FF021BB980F83C20FDF7CCF8E3
:104C1000242384F83D3023681A6822F001021A60C8
:104C20001A6842F400421A601A6822F400421A60BC
:104C300000F0A8FE3F4B65689D4294BF3E4B3F4B42
:104C400098428CBF00230123002BD6D12268394E15
:104C500051683B4BB0FBF3F321F03F011943B542E0
:104C6000516088BF4FF49676116A88BF734321F074
:104C70003F0184BF4FF47A76B3FBF6F301330B4365
:104C80001362D169431E2B4821F44F41854221F024
:104C9000FF0132D86D0040F6FC70B3FBF5F3013331
:104CA000034242D0C3F30B031943D161D4E9073067
:104CB0001168034321F0C0010B4313609168D4E9EC
:104CC000030321F40341034321F0FF010B439360ED
:104CD000D4E90530D168034321F0FF010B43D360D1
:104CE000136843F00103136000202023206484F83C
:104CF0003D30206384F83E0080E7A06850B905EBA2
:104D00004505B3FBF5F30133C3F30B037BB143F468
:104D10000043C9E719206843B3FBF0F30133C3F341
:104D20000B0323B143F44043BEE70423BCE7012354
:104D3000BAE700BFA08601007F841E00FF083D0087
:104D400040420F002DE9F743044699460C9E0F465A
:104D50009046FFF7E1FA94F83D30202B054603D04A
:104D6000022003B0BDE8F08300903C4919230122E2
:104D70002046FFF759FD0028F2D194F83C30012B72
:104D8000EED02068012384F83C300368D9075EBF69
:104D9000036843F001030360036823F400630360C6
:104DA000212384F83D30402384F83E3000232364DF
:104DB0000A9B6362BDF82C306385638D2385284B85
:104DC000E3624246CDE900654B4639462046FFF78F
:104DD000D7FD00282AD00120C3E7FFF7A7FD40B187
:104DE000236C042B01BF2268136843F40073136023
:104DF000F1E7636A27681A4612F8011B396162629B
:104E0000628D218D013A92B262857A69481E80B224
:104E1000520720850AD548B15A783A610233636255
:104E2000638D013B02399BB221856385238D2A4620
:104E300031462046002BD0D1FFF77EFE0028CFD18F
:104E40002268136843F400731360202384F83D3014
:104E500084F83C0084F83E0083E700BF02001000A5
:104E60000000FFFF2DE9F043044687B09946109FEC
:104E70000D469046FFF750FA94F83D30202B064639
:104E800004D00225284607B0BDE8F08300907A4997
:104E9000192301222046FFF7C7FC0028F1D194F81E
:104EA0003C30012BEDD02068012384F83C300368AE
:104EB000DB075EBF036843F001030360036823F46C
:104EC00000630360222384F83D30402384F83E30A1
:104ED000002323640E9B6362BDF83C306385638DC1
:104EE0002385664BE3622946CDE900764B46424670
:104EF0002046FFF79FFD054608B10125C2E7228D38
:104F00002368B2B902905A6902929A690292029A8F
:104F10001A6842F400721A60DFF86481238D002B56
:104F20002CD1202284F83D2084F83C3084F83E3097
:104F3000A8E7012A0AD11A6822F480621A60039055
:104F40005A6903929A690392039AE1E7022A0ED101
:104F50001A6822F480621A601A6842F400621A60C9
:104F600004905A6904929B690493049BD4E70590CA
:104F70005A6905929B690593059BCDE7032B56D88B
:104F8000012B15D1324639462046FFF7FFFD002898
:104F9000B3D123681A69636A1A70636A0133636262
:104FA000238D013B2385638D013B9BB26385B5E770
:104FB000022B00963B464FF000024146204619D195
:104FC000FFF732FC002898D123681A6842F4007277
:104FD0001A601A69636A1A70626A531C6362238DCD
:104FE000013B2385638D013B9BB2638523681B696D
:104FF0005370D2E7FFF718FC024600287FF47DAF1C
:105000002368196821F4806119601969636A19704D
:10501000636A01336362238D013B2385638D013B0A
:105020009BB26385414600963B462046C8E7324620
:1050300039462046FFF7AAFD00287FF45EAF2368BB
:105040001A69636A1A70628D616A013A92B24B1CE6
:10505000628522686362238D5069013B9BB24007E1
:1050600023857FF55BAF032B02BF136823F48063B6
:10507000136013694B7090E7020010000000FFFFFF
:105080000400010010B590F83D30202BDCB216D1A1
:10509000242380F83D3003681A6822F001021A6068
:1050A0005A6A22F010025A625A6A114359621A6807
:1050B00042F001021A6080F83D40002010BD02203D
:1050C000FCE730B590F83D30202BDCB216D10268F9
:1050D000242380F83D30136823F001031360556AE0
:1050E0004FF6F0732B400B439BB25362136843F0AF
:1050F0000103136080F83D40002030BD0220FCE732
:105100000068D1F800C0D201843283182DE9F04341
:10511000C6685D684C68D1F8189005F470455D600C
:10512000C5680CF10107C5F30B45C6F30B462644D1
:105130003D4445EA06455D60C668CD68C6F30A068B
:105140002E449D6805F470459D60C7688D68C7F35F
:105150000A0701353D4445EA06459D601D690E6913
:1051600025F007051D614FF0000E1E6191F83270A9
:105170009D6991F83180C3F818E091F8305045EA04
:10518000096545EA082545EA07459D615D6925F001
:10519000FF055D614D695D61DD6925F4E06525F020
:1051A0000705DD61D1E907573D43DD619D6A4D6A21
:1051B000C3F828E0072E9D629CBF0E4DAE5DDD6AF0
:1051C00005F0E025DD6288BF01268D6AC96AA4EB7F
:1051D0000C0474437543033444EA0544DC621C6BDD
:1051E0006FF30A041C631963835843F0010383506F
:1051F000BDE8F083F863020838B50446002863D0A0
:1052000090F8A13003F0FF021BB980F8A020FCF752
:1052100027FE022384F8A13023689A6922F07042A5
:105220009A61D4E901200243E06899690243206948
:1052300002430A439A619A68244960690A409A6065
:105240009A6842EA0042A06902439A60DA68E0691B
:105250000A40DA60DA6842EA0042206A0243DA6011
:105260001A69606A0A401A611A6942EA0042A06A31
:1052700002431A615A690A405A615A69E16A42EA6C
:105280000142216B0A435A61DA6A94F8350094F8B6
:10529000361002F07F42DA62DD6A94F834202A4345
:1052A00042EA002242EA0142DA625A6B42F0060206
:1052B0005A639A6942F001029A6100200123C4F8FE
:1052C000A40084F8A13038BD0120FCE700F800F00C
:1052D00070477047036870B59E6B5D6B720704463C
:1052E00014D5690712D55A6B22F004025A630422BE
:1052F000DA63D0F8A43043F00103C0F8A4300023EF
:1053000080F8A12080F8A030FFF7E2FFB20716D5A1
:10531000AB0714D523685A6B22F002025A630222AB
:10532000DA63D4F8A4301343C4F8A430042384F817
:10533000A130002384F8A0302046FFF7C9FFF00712
:1053400010D5E9070ED523685A6B22F001025A6383
:105350000122DA63002384F8A12084F8A0302046DB
:10536000FCF75CF9320711D52B070FD523685A6B70
:1053700022F008025A630822DA63012384F8A1307C
:10538000002384F8A0302046FFF7A3FF70BD2DE96D
:10539000F04190F8A030012B06460F4694464FF09E
:1053A00002001FD04FF0010886F8A08086F8A10007
:1053B00034240D4604FB02640FCD38340FC40FCDE6
:1053C0000FC40FCD0FC42B682360304662463946A8
:1053D000FFF796FE33680020C3F8248086F8A1808A
:1053E00086F8A000BDE8F08190F8A020012A0346CD
:1053F0004FF0020012D01A6883F8A100506B20F021
:105400000100506306480164516B41F00101516392
:105410000020012283F8A12083F8A000704700BF7C
:105420000068014037B500230193184B184D1A6CE2
:1054300042F080521A641B6C03F080530193019B6D
:10544000144B01221A64FEF767FF04466B68DA0307
:105450000BD5104B0E4D01225A64FEF75DFF04463A
:105460006B689B030AD5002006E0FEF755FF001B82
:10547000B0F57A7FEAD9032003B030BDFEF74CFFC8
:10548000001BB0F57A7FEBD9F5E700BF003802408A
:105490000070004000000E422DE9F341044640B385
:1054A0000368DE0710D423689D075BD423681907BF
:1054B00000F19D8023685A0700F1BD80A369002B8D
:1054C00040F0248100202CE08D4B9A6802F00C0201
:1054D000042A07D09A6802F00C02082A0BD15B68F4
:1054E000590208D5864B1B689A03DCD56368002BEC
:1054F000D9D1012015E06368814DB3F5803F13D108
:105500002B6843F480332B60FEF706FF7C4E054684
:1055100033689B03C7D4FEF7FFFE401B6428F7D90E
:10552000032002B0BDE8F081B3F5A02F04D12B68B1
:1055300043F480232B60E3E72A6822F480322A6058
:105540002A6822F480222A60002BDDD1FEF7E4FED7
:1055500006462B689F03A6D5FEF7DEFE801B642857
:10556000F7D9DDE7664B9A6812F00C0F07D09A68FE
:1055700002F00C02082A11D15B685D020ED4604A69
:105580001368990702D5E368012BB2D1136821692A
:1055900023F0F80343EAC103136087E7E268594B3D
:1055A000B2B101221A60FEF7B7FE554D06462B68D0
:1055B0009B0707D52B68226923F0F80343EAC2034F
:1055C0002B6073E7FEF7A8FE801B0228EFD9A7E740
:1055D0001A60FEF7A1FE4A4E054633689F077FF525
:1055E00065AFFEF799FE401B0228F6D998E762697D
:1055F000444B82B10122C3F8802EFEF78DFE404E4F
:105600000546736F9B073FF555AFFEF785FE401BC0
:105610000228F6D984E7C3F8802EFEF77DFE384EC7
:105620000546736F9F077FF545AFFEF775FE401B7C
:105630000228F6D974E7324B1A6C12F0805228D146
:1056400001921A6C42F080521A641B6C03F0805372
:105650000193019B01272C4D2B68D8051BD5A3680E
:10566000274D012B27D12B6F43F001032B67FEF74A
:1056700053FE234E054641F28838336F9A0739D5D9
:10568000002F3FF41BAF1E4A136C23F080531364AA
:1056900014E70027DFE72B6843F480732B60FEF7E5
:1056A0003BFE06462B68D905D9D4FEF735FE801B94
:1056B0000228F7D934E7052B04D12B6F43F00403FC
:1056C0002B67D0E72A6F22F001022A672A6F22F0A7
:1056D00004022A67002BCAD1FEF71EFE41F2883869
:1056E00006462B6F9B07CBD5FEF716FE801B404569
:1056F000F7D915E7FEF710FE401B4045BDD90FE76F
:10570000003802400000474200700040374DAA6850
:1057100002F00C02082A3ED0022B354B4FF000025B
:105720001A662BD1FEF7F8FD06462B6899011FD4A7
:10573000D4E907321343626A43EA8213E26A43EA16
:105740000263A26A5208013A43EA02436B60284BA3
:10575000264D01221A66FEF7DFFD04462B689A01EA
:105760003FF5B0AEFEF7D8FD001B0228F6D9D7E60C
:10577000FEF7D2FD801B0228D7D9D1E6FEF7CCFD7B
:1057800004462B689B017FF59DAEFEF7C5FD001B0F
:105790000228F6D9C4E6012B3FF4ABAE6B68E26990
:1057A00003F4800191427FF4A4AE216A03F03F022A
:1057B0008A427FF49EAE616A47F6C0721A40B2EB2D
:1057C000811F7FF496AEA26A520803F44031013A79
:1057D000B1EB024F7FF48DAEE26A03F07063B3EB7E
:1057E000026F14BF012000209BE600BF003802407A
:1057F00000004742134908B58B6803F00C03042BE3
:105800001CD0082B1CD14A684B68496813F48003EC
:1058100014BF0D480D48C1F3881118BF002302F0D2
:105820003F02A1FB0001FAF783FD064B5B68C3F35F
:10583000014301335B00B0FBF3F008BD0248FCE715
:105840000248FAE70038024000127A000024F4000F
:105850002DE9F0410D46044610B90120BDE8F08164
:10586000434B1A6802F00F028A4228D321688F073F
:105870002DD4C80740D43E4B1A6802F00F02AA424A
:1058800065D8226851076BD4130707D5394A2169B7
:10589000936823F4604343EAC1039360FFF7AAFFD0
:1058A000344B354A9B68C3F30313D35CD840334B66
:1058B0001860334B1868FCF751FC0020CEE7CAB2E1
:1058C0001A701B6803F00F038B42C6D1CEE7294B39
:1058D00011F0040F1EBF9A6842F4E0529A600E075E
:1058E00042BF9A6842F460429A609A68A06822F0C7
:1058F000F00202439A60BCE762681E4B012A1CD189
:105900001B6813F4003FA8D01A4EB36823F00303BA
:105910001343B360FEF700FD41F288380746B368D1
:10592000626803F00C03B3EB820FA4D0FEF7F4FC23
:10593000C01B4045F3D9032090E7911E01291B6845
:1059400002D813F0007FDEE713F0020FDBE7EAB2C4
:105950001A701B6803F00F03AB427FF47EAF90E731
:105960000449E0688B6823F4E05303438B608BE7C2
:10597000003C024000380240E86302087400002046
:105980007C000020044B054A9B68C3F38223D35C50
:10599000034A1068D840704700380240E0630208AC
:1059A000740000200F2303600B4B9A6802F003027F
:1059B00042609A6802F0F00282609A6802F4E05253
:1059C000C2609B68DB0803F4E0530361034B1B6870
:1059D00003F00F030B60704700380240003C0240A8
:1059E000036813F0430FF7B5044640F0888023683E
:1059F00013F00C0F45D08C4B8C4D00221A67FEF72C
:105A00008BFC06462B68990000F1CB8021684A0781
:105A100015D5D4E90403D5F888201B0602F0E0422E
:105A200043EA80131343C5F88830D5F88C30226AD6
:105A300023F4F853013A43EA0223C5F88C300B07EC
:105A400014D57A4AA369D2F8881020691B0701F09F
:105A5000706143EA80130B43C2F88830D2F88C306F
:105A6000616A23F440330B43C2F88C306E4B6F4EA7
:105A700001221A67FEF750FC054633689F0040F18B
:105A800097802368980634D500230193674B684DAF
:105A90001A6C42F080521A641B6C03F0805301931D
:105AA000019B2B6843F480732B60FEF735FC0646A0
:105AB0002B68D80540F183805C4DA26A2B6F13F4EC
:105AC000407340F08380A36A03F44072B2F5407FD4
:105AD000564A40F09E80916823F0704021F4F811FE
